{
    "_format": "hh-sol-artifact-1",
    "contractName": "ReputationSystem",
    "sourceName": "contracts/ReputationSystem.sol",
    "abi": [
        {
            "inputs": [],
            "stateMutability": "nonpayable",
            "type": "constructor"
        },
        {
            "anonymous": false,
            "inputs": [
                {
                    "indexed": true,
                    "internalType": "address",
                    "name": "user",
                    "type": "address"
                },
                {
                    "indexed": false,
                    "internalType": "string",
                    "name": "actionType",
                    "type": "string"
                }
            ],
            "name": "ActionCompleted",
            "type": "event"
        },
        {
            "anonymous": false,
            "inputs": [
                {
                    "indexed": true,
                    "internalType": "address",
                    "name": "owner",
                    "type": "address"
                },
                {
                    "indexed": true,
                    "internalType": "address",
                    "name": "approved",
                    "type": "address"
                },
                {
                    "indexed": true,
                    "internalType": "uint256",
                    "name": "tokenId",
                    "type": "uint256"
                }
            ],
            "name": "Approval",
            "type": "event"
        },
        {
            "anonymous": false,
            "inputs": [
                {
                    "indexed": true,
                    "internalType": "address",
                    "name": "owner",
                    "type": "address"
                },
                {
                    "indexed": true,
                    "internalType": "address",
                    "name": "operator",
                    "type": "address"
                },
                {
                    "indexed": false,
                    "internalType": "bool",
                    "name": "approved",
                    "type": "bool"
                }
            ],
            "name": "ApprovalForAll",
            "type": "event"
        },
        {
            "anonymous": false,
            "inputs": [
                {
                    "indexed": true,
                    "internalType": "address",
                    "name": "previousOwner",
                    "type": "address"
                },
                {
                    "indexed": true,
                    "internalType": "address",
                    "name": "newOwner",
                    "type": "address"
                }
            ],
            "name": "OwnershipTransferred",
            "type": "event"
        },
        {
            "anonymous": false,
            "inputs": [
                {
                    "indexed": true,
                    "internalType": "address",
                    "name": "user",
                    "type": "address"
                },
                {
                    "indexed": false,
                    "internalType": "uint256",
                    "name": "amount",
                    "type": "uint256"
                },
                {
                    "indexed": false,
                    "internalType": "uint256",
                    "name": "newScore",
                    "type": "uint256"
                }
            ],
            "name": "ReputationDecreased",
            "type": "event"
        },
        {
            "anonymous": false,
            "inputs": [
                {
                    "indexed": true,
                    "internalType": "address",
                    "name": "user",
                    "type": "address"
                },
                {
                    "indexed": false,
                    "internalType": "uint256",
                    "name": "amount",
                    "type": "uint256"
                },
                {
                    "indexed": false,
                    "internalType": "uint256",
                    "name": "newScore",
                    "type": "uint256"
                }
            ],
            "name": "ReputationIncreased",
            "type": "event"
        },
        {
            "anonymous": false,
            "inputs": [
                {
                    "indexed": true,
                    "internalType": "address",
                    "name": "to",
                    "type": "address"
                },
                {
                    "indexed": false,
                    "internalType": "uint256",
                    "name": "tokenId",
                    "type": "uint256"
                },
                {
                    "indexed": false,
                    "internalType": "uint256",
                    "name": "reputationLevel",
                    "type": "uint256"
                }
            ],
            "name": "SoulboundTokenMinted",
            "type": "event"
        },
        {
            "anonymous": false,
            "inputs": [
                {
                    "indexed": true,
                    "internalType": "address",
                    "name": "from",
                    "type": "address"
                },
                {
                    "indexed": true,
                    "internalType": "address",
                    "name": "to",
                    "type": "address"
                },
                {
                    "indexed": true,
                    "internalType": "uint256",
                    "name": "tokenId",
                    "type": "uint256"
                }
            ],
            "name": "Transfer",
            "type": "event"
        },
        {
            "inputs": [
                {
                    "internalType": "string",
                    "name": "",
                    "type": "string"
                }
            ],
            "name": "actionPoints",
            "outputs": [
                {
                    "internalType": "uint256",
                    "name": "",
                    "type": "uint256"
                }
            ],
            "stateMutability": "view",
            "type": "function"
        },
        {
            "inputs": [
                {
                    "internalType": "string",
                    "name": "actionType",
                    "type": "string"
                },
                {
                    "internalType": "uint256",
                    "name": "points",
                    "type": "uint256"
                }
            ],
            "name": "addActionType",
            "outputs": [],
            "stateMutability": "nonpayable",
            "type": "function"
        },
        {
            "inputs": [
                {
                    "internalType": "string",
                    "name": "name",
                    "type": "string"
                },
                {
                    "internalType": "uint256",
                    "name": "threshold",
                    "type": "uint256"
                },
                {
                    "internalType": "string",
                    "name": "levelTokenURI",
                    "type": "string"
                }
            ],
            "name": "addReputationLevel",
            "outputs": [],
            "stateMutability": "nonpayable",
            "type": "function"
        },
        {
            "inputs": [
                {
                    "internalType": "address",
                    "name": "",
                    "type": "address"
                }
            ],
            "name": "addressToTokenId",
            "outputs": [
                {
                    "internalType": "uint256",
                    "name": "",
                    "type": "uint256"
                }
            ],
            "stateMutability": "view",
            "type": "function"
        },
        {
            "inputs": [
                {
                    "internalType": "address",
                    "name": "to",
                    "type": "address"
                },
                {
                    "internalType": "uint256",
                    "name": "tokenId",
                    "type": "uint256"
                }
            ],
            "name": "approve",
            "outputs": [],
            "stateMutability": "nonpayable",
            "type": "function"
        },
        {
            "inputs": [
                {
                    "internalType": "address",
                    "name": "owner",
                    "type": "address"
                }
            ],
            "name": "balanceOf",
            "outputs": [
                {
                    "internalType": "uint256",
                    "name": "",
                    "type": "uint256"
                }
            ],
            "stateMutability": "view",
            "type": "function"
        },
        {
            "inputs": [
                {
                    "internalType": "address",
                    "name": "user",
                    "type": "address"
                },
                {
                    "internalType": "string",
                    "name": "actionType",
                    "type": "string"
                }
            ],
            "name": "completeAction",
            "outputs": [],
            "stateMutability": "nonpayable",
            "type": "function"
        },
        {
            "inputs": [
                {
                    "internalType": "address",
                    "name": "user",
                    "type": "address"
                },
                {
                    "internalType": "uint256",
                    "name": "amount",
                    "type": "uint256"
                }
            ],
            "name": "decreaseReputation",
            "outputs": [],
            "stateMutability": "nonpayable",
            "type": "function"
        },
        {
            "inputs": [
                {
                    "internalType": "uint256",
                    "name": "tokenId",
                    "type": "uint256"
                }
            ],
            "name": "getApproved",
            "outputs": [
                {
                    "internalType": "address",
                    "name": "",
                    "type": "address"
                }
            ],
            "stateMutability": "view",
            "type": "function"
        },
        {
            "inputs": [
                {
                    "internalType": "address",
                    "name": "user",
                    "type": "address"
                }
            ],
            "name": "getReputationLevel",
            "outputs": [
                {
                    "internalType": "uint256",
                    "name": "levelId",
                    "type": "uint256"
                },
                {
                    "internalType": "string",
                    "name": "levelName",
                    "type": "string"
                }
            ],
            "stateMutability": "view",
            "type": "function"
        },
        {
            "inputs": [
                {
                    "internalType": "address",
                    "name": "user",
                    "type": "address"
                },
                {
                    "internalType": "uint256",
                    "name": "amount",
                    "type": "uint256"
                }
            ],
            "name": "increaseReputation",
            "outputs": [],
            "stateMutability": "nonpayable",
            "type": "function"
        },
        {
            "inputs": [
                {
                    "internalType": "address",
                    "name": "owner",
                    "type": "address"
                },
                {
                    "internalType": "address",
                    "name": "operator",
                    "type": "address"
                }
            ],
            "name": "isApprovedForAll",
            "outputs": [
                {
                    "internalType": "bool",
                    "name": "",
                    "type": "bool"
                }
            ],
            "stateMutability": "view",
            "type": "function"
        },
        {
            "inputs": [],
            "name": "name",
            "outputs": [
                {
                    "internalType": "string",
                    "name": "",
                    "type": "string"
                }
            ],
            "stateMutability": "view",
            "type": "function"
        },
        {
            "inputs": [],
            "name": "owner",
            "outputs": [
                {
                    "internalType": "address",
                    "name": "",
                    "type": "address"
                }
            ],
            "stateMutability": "view",
            "type": "function"
        },
        {
            "inputs": [
                {
                    "internalType": "uint256",
                    "name": "tokenId",
                    "type": "uint256"
                }
            ],
            "name": "ownerOf",
            "outputs": [
                {
                    "internalType": "address",
                    "name": "",
                    "type": "address"
                }
            ],
            "stateMutability": "view",
            "type": "function"
        },
        {
            "inputs": [],
            "name": "renounceOwnership",
            "outputs": [],
            "stateMutability": "nonpayable",
            "type": "function"
        },
        {
            "inputs": [
                {
                    "internalType": "uint256",
                    "name": "",
                    "type": "uint256"
                }
            ],
            "name": "reputationLevels",
            "outputs": [
                {
                    "internalType": "string",
                    "name": "name",
                    "type": "string"
                },
                {
                    "internalType": "uint256",
                    "name": "threshold",
                    "type": "uint256"
                },
                {
                    "internalType": "string",
                    "name": "tokenURI",
                    "type": "string"
                }
            ],
            "stateMutability": "view",
            "type": "function"
        },
        {
            "inputs": [
                {
                    "internalType": "address",
                    "name": "",
                    "type": "address"
                }
            ],
            "name": "reputationScores",
            "outputs": [
                {
                    "internalType": "uint256",
                    "name": "",
                    "type": "uint256"
                }
            ],
            "stateMutability": "view",
            "type": "function"
        },
        {
            "inputs": [
                {
                    "internalType": "address",
                    "name": "from",
                    "type": "address"
                },
                {
                    "internalType": "address",
                    "name": "to",
                    "type": "address"
                },
                {
                    "internalType": "uint256",
                    "name": "tokenId",
                    "type": "uint256"
                }
            ],
            "name": "safeTransferFrom",
            "outputs": [],
            "stateMutability": "nonpayable",
            "type": "function"
        },
        {
            "inputs": [
                {
                    "internalType": "address",
                    "name": "from",
                    "type": "address"
                },
                {
                    "internalType": "address",
                    "name": "to",
                    "type": "address"
                },
                {
                    "internalType": "uint256",
                    "name": "tokenId",
                    "type": "uint256"
                },
                {
                    "internalType": "bytes",
                    "name": "data",
                    "type": "bytes"
                }
            ],
            "name": "safeTransferFrom",
            "outputs": [],
            "stateMutability": "nonpayable",
            "type": "function"
        },
        {
            "inputs": [
                {
                    "internalType": "address",
                    "name": "operator",
                    "type": "address"
                },
                {
                    "internalType": "bool",
                    "name": "approved",
                    "type": "bool"
                }
            ],
            "name": "setApprovalForAll",
            "outputs": [],
            "stateMutability": "nonpayable",
            "type": "function"
        },
        {
            "inputs": [
                {
                    "internalType": "bytes4",
                    "name": "interfaceId",
                    "type": "bytes4"
                }
            ],
            "name": "supportsInterface",
            "outputs": [
                {
                    "internalType": "bool",
                    "name": "",
                    "type": "bool"
                }
            ],
            "stateMutability": "view",
            "type": "function"
        },
        {
            "inputs": [],
            "name": "symbol",
            "outputs": [
                {
                    "internalType": "string",
                    "name": "",
                    "type": "string"
                }
            ],
            "stateMutability": "view",
            "type": "function"
        },
        {
            "inputs": [
                {
                    "internalType": "uint256",
                    "name": "tokenId",
                    "type": "uint256"
                }
            ],
            "name": "tokenURI",
            "outputs": [
                {
                    "internalType": "string",
                    "name": "",
                    "type": "string"
                }
            ],
            "stateMutability": "view",
            "type": "function"
        },
        {
            "inputs": [
                {
                    "internalType": "address",
                    "name": "from",
                    "type": "address"
                },
                {
                    "internalType": "address",
                    "name": "to",
                    "type": "address"
                },
                {
                    "internalType": "uint256",
                    "name": "tokenId",
                    "type": "uint256"
                }
            ],
            "name": "transferFrom",
            "outputs": [],
            "stateMutability": "nonpayable",
            "type": "function"
        },
        {
            "inputs": [
                {
                    "internalType": "address",
                    "name": "newOwner",
                    "type": "address"
                }
            ],
            "name": "transferOwnership",
            "outputs": [],
            "stateMutability": "nonpayable",
            "type": "function"
        }
    ],
    "bytecode": "0x60806040523480156200001157600080fd5b506040518060400160405280601a81526020017f52657075746174696f6e20536f756c626f756e6420546f6b656e0000000000008152506040518060400160405280600381526020017f525354000000000000000000000000000000000000000000000000000000000081525081600090816200008f919062000921565b508060019081620000a1919062000921565b505050620000c4620000b8620005d960201b60201c565b620005e160201b60201c565b600a80604051620000d59062000a63565b9081526020016040518091039020819055506014600a604051620000f99062000aca565b9081526020016040518091039020819055506032600a6040516200011d9062000b31565b908152602001604051809103902081905550600b60405180606001604052806040518060400160405280600681526020017f4e6f7669636500000000000000000000000000000000000000000000000000008152508152602001600081526020016040518060400160405280600e81526020017f697066733a2f2f516d486173683100000000000000000000000000000000000081525081525090806001815401808255809150506001900390600052602060002090600302016000909190919091506000820151816000019081620001f7919062000921565b5060208201518160010155604082015181600201908162000219919062000921565b505050600b60405180606001604052806040518060400160405280600b81526020017f436f6e7472696275746f720000000000000000000000000000000000000000008152508152602001606481526020016040518060400160405280600e81526020017f697066733a2f2f516d486173683200000000000000000000000000000000000081525081525090806001815401808255809150506001900390600052602060002090600302016000909190919091506000820151816000019081620002e4919062000921565b5060208201518160010155604082015181600201908162000306919062000921565b505050600b60405180606001604052806040518060400160405280600781526020017f5472757374656400000000000000000000000000000000000000000000000000815250815260200161012c81526020016040518060400160405280600e81526020017f697066733a2f2f516d486173683300000000000000000000000000000000000081525081525090806001815401808255809150506001900390600052602060002090600302016000909190919091506000820151816000019081620003d2919062000921565b50602082015181600101556040820151816002019081620003f4919062000921565b505050600b60405180606001604052806040518060400160405280600681526020017f457870657274000000000000000000000000000000000000000000000000000081525081526020016102bc81526020016040518060400160405280600e81526020017f697066733a2f2f516d486173683400000000000000000000000000000000000081525081525090806001815401808255809150506001900390600052602060002090600302016000909190919091506000820151816000019081620004c0919062000921565b50602082015181600101556040820151816002019081620004e2919062000921565b505050600b60405180606001604052806040518060400160405280600681526020017f4d6173746572000000000000000000000000000000000000000000000000000081525081526020016105dc81526020016040518060400160405280600e81526020017f697066733a2f2f516d486173683500000000000000000000000000000000000081525081525090806001815401808255809150506001900390600052602060002090600302016000909190919091506000820151816000019081620005ae919062000921565b50602082015181600101556040820151816002019081620005d0919062000921565b50505062000b48565b600033905090565b6000600660009054906101000a900473ffffffffffffffffffffffffffffffffffffffff16905081600660006101000a81548173ffffffffffffffffffffffffffffffffffffffff021916908373ffffffffffffffffffffffffffffffffffffffff1602179055508173ffffffffffffffffffffffffffffffffffffffff168173ffffffffffffffffffffffffffffffffffffffff167f8be0079c531659141344cd1fd0a4f28419497f9722a3daafe3b4186f6b6457e060405160405180910390a35050565b600081519050919050565b7f4e487b7100000000000000000000000000000000000000000000000000000000600052604160045260246000fd5b7f4e487b7100000000000000000000000000000000000000000000000000000000600052602260045260246000fd5b600060028204905060018216806200072957607f821691505b6020821081036200073f576200073e620006e1565b5b50919050565b60008190508160005260206000209050919050565b60006020601f8301049050919050565b600082821b905092915050565b600060088302620007a97fffffffffffffffffffffffffffffffffffffffffffffffffffffffffffffffff826200076a565b620007b586836200076a565b95508019841693508086168417925050509392505050565b6000819050919050565b6000819050919050565b600062000802620007fc620007f684620007cd565b620007d7565b620007cd565b9050919050565b6000819050919050565b6200081e83620007e1565b620008366200082d8262000809565b84845462000777565b825550505050565b600090565b6200084d6200083e565b6200085a81848462000813565b505050565b5b8181101562000882576200087660008262000843565b60018101905062000860565b5050565b601f821115620008d1576200089b8162000745565b620008a6846200075a565b81016020851015620008b6578190505b620008ce620008c5856200075a565b8301826200085f565b50505b505050565b600082821c905092915050565b6000620008f660001984600802620008d6565b1980831691505092915050565b6000620009118383620008e3565b9150826002028217905092915050565b6200092c82620006a7565b67ffffffffffffffff811115620009485762000947620006b2565b5b62000954825462000710565b6200096182828562000886565b600060209050601f83116001811462000999576000841562000984578287015190505b62000990858262000903565b86555062000a00565b601f198416620009a98662000745565b60005b82811015620009d357848901518255600182019150602085019450602081019050620009ac565b86831015620009f35784890151620009ef601f891682620008e3565b8355505b6001600288020188555050505b505050505050565b600081905092915050565b7f564f54455f494e5f44414f000000000000000000000000000000000000000000600082015250565b600062000a4b600b8362000a08565b915062000a588262000a13565b600b82019050919050565b600062000a708262000a3c565b9150819050919050565b7f434f4d504c4554455f5441534b00000000000000000000000000000000000000600082015250565b600062000ab2600d8362000a08565b915062000abf8262000a7a565b600d82019050919050565b600062000ad78262000aa3565b9150819050919050565b7f5645524946595f4143434f554e54000000000000000000000000000000000000600082015250565b600062000b19600e8362000a08565b915062000b268262000ae1565b600e82019050919050565b600062000b3e8262000b0a565b9150819050919050565b6134db8062000b586000396000f3fe608060405234801561001057600080fd5b506004361061018e5760003560e01c806391e2d425116100de578063ca2be1ad11610097578063e985e9c511610071578063e985e9c5146104a6578063ed9fa61b146104d6578063f2fde38b146104f2578063fe0438b21461050e5761018e565b8063ca2be1ad1461043e578063dbc029b61461045a578063ded86d681461048a5761018e565b806391e2d42514610355578063942b23da1461038657806395d89b41146103b8578063a22cb465146103d6578063b88d4fde146103f2578063c87b56dd1461040e5761018e565b806342842e0e1161014b57806370a082311161012557806370a08231146102e1578063715018a61461031157806389e9614c1461031b5780638da5cb5b146103375761018e565b806342842e0e146102655780636352211e146102815780636511bf2e146102b15761018e565b806301ffc9a71461019357806306fdde03146101c3578063081812fc146101e1578063095ea7b31461021157806323b872dd1461022d5780633a50532914610249575b600080fd5b6101ad60048036038101906101a8919061204f565b61053e565b6040516101ba9190612097565b60405180910390f35b6101cb610620565b6040516101d89190612142565b60405180910390f35b6101fb60048036038101906101f6919061219a565b6106b2565b6040516102089190612208565b60405180910390f35b61022b6004803603810190610226919061224f565b6106f8565b005b6102476004803603810190610242919061228f565b61080f565b005b610263600480360381019061025e9190612417565b61086f565b005b61027f600480360381019061027a919061228f565b6108f2565b005b61029b6004803603810190610296919061219a565b610912565b6040516102a89190612208565b60405180910390f35b6102cb60048036038101906102c691906124a2565b610998565b6040516102d891906124de565b60405180910390f35b6102fb60048036038101906102f691906124a2565b6109b0565b60405161030891906124de565b60405180910390f35b610319610a67565b005b610335600480360381019061033091906124f9565b610a7b565b005b61033f610b65565b60405161034c9190612208565b60405180910390f35b61036f600480360381019061036a91906124a2565b610b8f565b60405161037d929190612555565b60405180910390f35b6103a0600480360381019061039b919061219a565b610dbb565b6040516103af93929190612585565b60405180910390f35b6103c0610f05565b6040516103cd9190612142565b60405180910390f35b6103f060048036038101906103eb91906125f6565b610f97565b005b61040c600480360381019061040791906126d7565b610fad565b005b6104286004803603810190610423919061219a565b61100f565b6040516104359190612142565b60405180910390f35b6104586004803603810190610453919061275a565b61112b565b005b610474600480360381019061046f91906127b6565b611152565b60405161048191906124de565b60405180910390f35b6104a4600480360381019061049f919061224f565b611180565b005b6104c060048036038101906104bb91906127ff565b611197565b6040516104cd9190612097565b60405180910390f35b6104f060048036038101906104eb919061224f565b61122b565b005b61050c600480360381019061050791906124a2565b611396565b005b610528600480360381019061052391906124a2565b611419565b60405161053591906124de565b60405180910390f35b60007f80ac58cd000000000000000000000000000000000000000000000000000000007bffffffffffffffffffffffffffffffffffffffffffffffffffffffff1916827bffffffffffffffffffffffffffffffffffffffffffffffffffffffff1916148061060957507f5b5e139f000000000000000000000000000000000000000000000000000000007bffffffffffffffffffffffffffffffffffffffffffffffffffffffff1916827bffffffffffffffffffffffffffffffffffffffffffffffffffffffff1916145b80610619575061061882611431565b5b9050919050565b60606000805461062f9061286e565b80601f016020809104026020016040519081016040528092919081815260200182805461065b9061286e565b80156106a85780601f1061067d576101008083540402835291602001916106a8565b820191906000526020600020905b81548152906001019060200180831161068b57829003601f168201915b5050505050905090565b60006106bd8261149b565b6004600083815260200190815260200160002060009054906101000a900473ffffffffffffffffffffffffffffffffffffffff169050919050565b600061070382610912565b90508073ffffffffffffffffffffffffffffffffffffffff168373ffffffffffffffffffffffffffffffffffffffff1603610773576040517f08c379a000000000000000000000000000000000000000000000000000000000815260040161076a90612911565b60405180910390fd5b8073ffffffffffffffffffffffffffffffffffffffff166107926114e6565b73ffffffffffffffffffffffffffffffffffffffff1614806107c157506107c0816107bb6114e6565b611197565b5b610800576040517f08c379a00000000000000000000000000000000000000000000000000000000081526004016107f7906129a3565b60405180910390fd5b61080a83836114ee565b505050565b61082061081a6114e6565b826115a7565b61085f576040517f08c379a000000000000000000000000000000000000000000000000000000000815260040161085690612a35565b60405180910390fd5b61086a83838361163c565b505050565b600b604051806060016040528085815260200184815260200183815250908060018154018082558091505060019003906000526020600020906003020160009091909190915060008201518160000190816108ca9190612c01565b506020820151816001015560408201518160020190816108ea9190612c01565b505050505050565b61090d83838360405180602001604052806000815250610fad565b505050565b60008061091e83611677565b9050600073ffffffffffffffffffffffffffffffffffffffff168173ffffffffffffffffffffffffffffffffffffffff160361098f576040517f08c379a000000000000000000000000000000000000000000000000000000000815260040161098690612d1f565b60405180910390fd5b80915050919050565b60096020528060005260406000206000915090505481565b60008073ffffffffffffffffffffffffffffffffffffffff168273ffffffffffffffffffffffffffffffffffffffff1603610a20576040517f08c379a0000000000000000000000000000000000000000000000000000000008152600401610a1790612db1565b60405180910390fd5b600360008373ffffffffffffffffffffffffffffffffffffffff1673ffffffffffffffffffffffffffffffffffffffff168152602001908152602001600020549050919050565b610a6f6116b4565b610a796000611732565b565b6000600a82604051610a8d9190612e0d565b90815260200160405180910390205411610adc576040517f08c379a0000000000000000000000000000000000000000000000000000000008152600401610ad390612e70565b60405180910390fd5b6000600a82604051610aee9190612e0d565b9081526020016040518091039020549050610b0983826117f8565b8273ffffffffffffffffffffffffffffffffffffffff167fd469ddfa1c4a0480af4ce6a16e3352d90f9b398a8315b896900d0e6226f6990e83604051610b4f9190612142565b60405180910390a2610b60836118e1565b505050565b6000600660009054906101000a900473ffffffffffffffffffffffffffffffffffffffff16905090565b600060606000600860008573ffffffffffffffffffffffffffffffffffffffff1673ffffffffffffffffffffffffffffffffffffffff16815260200190815260200160002054905060006001600b80549050610beb9190612ebf565b90505b60008110610cfb57600b8181548110610c0a57610c09612ef3565b5b9060005260206000209060030201600101548210610cdf5780600b8281548110610c3757610c36612ef3565b5b9060005260206000209060030201600001808054610c549061286e565b80601f0160208091040260200160405190810160405280929190818152602001828054610c809061286e565b8015610ccd5780601f10610ca257610100808354040283529160200191610ccd565b820191906000526020600020905b815481529060010190602001808311610cb057829003601f168201915b50505050509050935093505050610db6565b6000810315610cfb578080610cf390612f22565b915050610bee565b506000600b600081548110610d1357610d12612ef3565b5b9060005260206000209060030201600001808054610d309061286e565b80601f0160208091040260200160405190810160405280929190818152602001828054610d5c9061286e565b8015610da95780601f10610d7e57610100808354040283529160200191610da9565b820191906000526020600020905b815481529060010190602001808311610d8c57829003601f168201915b5050505050905092509250505b915091565b600b8181548110610dcb57600080fd5b9060005260206000209060030201600091509050806000018054610dee9061286e565b80601f0160208091040260200160405190810160405280929190818152602001828054610e1a9061286e565b8015610e675780601f10610e3c57610100808354040283529160200191610e67565b820191906000526020600020905b815481529060010190602001808311610e4a57829003601f168201915b505050505090806001015490806002018054610e829061286e565b80601f0160208091040260200160405190810160405280929190818152602001828054610eae9061286e565b8015610efb5780601f10610ed057610100808354040283529160200191610efb565b820191906000526020600020905b815481529060010190602001808311610ede57829003601f168201915b5050505050905083565b606060018054610f149061286e565b80601f0160208091040260200160405190810160405280929190818152602001828054610f409061286e565b8015610f8d5780601f10610f6257610100808354040283529160200191610f8d565b820191906000526020600020905b815481529060010190602001808311610f7057829003601f168201915b5050505050905090565b610fa9610fa26114e6565b8383611945565b5050565b610fbe610fb86114e6565b836115a7565b610ffd576040517f08c379a0000000000000000000000000000000000000000000000000000000008152600401610ff490612a35565b60405180910390fd5b61100984848484611ab1565b50505050565b606061101a82611b0d565b611059576040517f08c379a000000000000000000000000000000000000000000000000000000000815260040161105090612d1f565b60405180910390fd5b600061106483610912565b9050600061107182610b8f565b509050600b818154811061108857611087612ef3565b5b906000526020600020906003020160020180546110a49061286e565b80601f01602080910402602001604051908101604052809291908181526020018280546110d09061286e565b801561111d5780601f106110f25761010080835404028352916020019161111d565b820191906000526020600020905b81548152906001019060200180831161110057829003601f168201915b505050505092505050919050565b80600a8360405161113c9190612e0d565b9081526020016040518091039020819055505050565b600a818051602081018201805184825260208301602085012081835280955050505050506000915090505481565b61118a82826117f8565b611193826118e1565b5050565b6000600560008473ffffffffffffffffffffffffffffffffffffffff1673ffffffffffffffffffffffffffffffffffffffff16815260200190815260200160002060008373ffffffffffffffffffffffffffffffffffffffff1673ffffffffffffffffffffffffffffffffffffffff16815260200190815260200160002060009054906101000a900460ff16905092915050565b80600860008473ffffffffffffffffffffffffffffffffffffffff1673ffffffffffffffffffffffffffffffffffffffff1681526020019081526020016000205410156112ad576040517f08c379a00000000000000000000000000000000000000000000000000000000081526004016112a490612f97565b60405180910390fd5b80600860008473ffffffffffffffffffffffffffffffffffffffff1673ffffffffffffffffffffffffffffffffffffffff16815260200190815260200160002060008282546112fc9190612ebf565b925050819055508173ffffffffffffffffffffffffffffffffffffffff167f8c906f659d5537f9e617a171b7fdd59760a014eeb4811da5c5fccf62a413983482600860008673ffffffffffffffffffffffffffffffffffffffff1673ffffffffffffffffffffffffffffffffffffffff1681526020019081526020016000205460405161138a929190612fb7565b60405180910390a25050565b61139e6116b4565b600073ffffffffffffffffffffffffffffffffffffffff168173ffffffffffffffffffffffffffffffffffffffff160361140d576040517f08c379a000000000000000000000000000000000000000000000000000000000815260040161140490613052565b60405180910390fd5b61141681611732565b50565b60086020528060005260406000206000915090505481565b60007f01ffc9a7000000000000000000000000000000000000000000000000000000007bffffffffffffffffffffffffffffffffffffffffffffffffffffffff1916827bffffffffffffffffffffffffffffffffffffffffffffffffffffffff1916149050919050565b6114a481611b0d565b6114e3576040517f08c379a00000000000000000000000000000000000000000000000000000000081526004016114da90612d1f565b60405180910390fd5b50565b600033905090565b816004600083815260200190815260200160002060006101000a81548173ffffffffffffffffffffffffffffffffffffffff021916908373ffffffffffffffffffffffffffffffffffffffff160217905550808273ffffffffffffffffffffffffffffffffffffffff1661156183610912565b73ffffffffffffffffffffffffffffffffffffffff167f8c5be1e5ebec7d5bd14f71427d1e84f3dd0314c0f7b2291e5b200ac8c7c3b92560405160405180910390a45050565b6000806115b383610912565b90508073ffffffffffffffffffffffffffffffffffffffff168473ffffffffffffffffffffffffffffffffffffffff1614806115f557506115f48185611197565b5b8061163357508373ffffffffffffffffffffffffffffffffffffffff1661161b846106b2565b73ffffffffffffffffffffffffffffffffffffffff16145b91505092915050565b6040517f08c379a000000000000000000000000000000000000000000000000000000000815260040161166e906130e4565b60405180910390fd5b60006002600083815260200190815260200160002060009054906101000a900473ffffffffffffffffffffffffffffffffffffffff169050919050565b6116bc6114e6565b73ffffffffffffffffffffffffffffffffffffffff166116da610b65565b73ffffffffffffffffffffffffffffffffffffffff1614611730576040517f08c379a000000000000000000000000000000000000000000000000000000000815260040161172790613150565b60405180910390fd5b565b6000600660009054906101000a900473ffffffffffffffffffffffffffffffffffffffff16905081600660006101000a81548173ffffffffffffffffffffffffffffffffffffffff021916908373ffffffffffffffffffffffffffffffffffffffff1602179055508173ffffffffffffffffffffffffffffffffffffffff168173ffffffffffffffffffffffffffffffffffffffff167f8be0079c531659141344cd1fd0a4f28419497f9722a3daafe3b4186f6b6457e060405160405180910390a35050565b80600860008473ffffffffffffffffffffffffffffffffffffffff1673ffffffffffffffffffffffffffffffffffffffff16815260200190815260200160002060008282546118479190613170565b925050819055508173ffffffffffffffffffffffffffffffffffffffff167f1184f90af155d0111e012d312573e4629b957416262135b177d8f05a626b723382600860008673ffffffffffffffffffffffffffffffffffffffff1673ffffffffffffffffffffffffffffffffffffffff168152602001908152602001600020546040516118d5929190612fb7565b60405180910390a25050565b60006118ec82610b8f565b5090506000600960008473ffffffffffffffffffffffffffffffffffffffff1673ffffffffffffffffffffffffffffffffffffffff1681526020019081526020016000205403611941576119408282611b4e565b5b5050565b8173ffffffffffffffffffffffffffffffffffffffff168373ffffffffffffffffffffffffffffffffffffffff16036119b3576040517f08c379a00000000000000000000000000000000000000000000000000000000081526004016119aa906131f0565b60405180910390fd5b80600560008573ffffffffffffffffffffffffffffffffffffffff1673ffffffffffffffffffffffffffffffffffffffff16815260200190815260200160002060008473ffffffffffffffffffffffffffffffffffffffff1673ffffffffffffffffffffffffffffffffffffffff16815260200190815260200160002060006101000a81548160ff0219169083151502179055508173ffffffffffffffffffffffffffffffffffffffff168373ffffffffffffffffffffffffffffffffffffffff167f17307eab39ab6107e8899845ad3d59bd9653f200f220920489ca2b5937696c3183604051611aa49190612097565b60405180910390a3505050565b611abc84848461163c565b611ac884848484611c10565b611b07576040517f08c379a0000000000000000000000000000000000000000000000000000000008152600401611afe90613282565b60405180910390fd5b50505050565b60008073ffffffffffffffffffffffffffffffffffffffff16611b2f83611677565b73ffffffffffffffffffffffffffffffffffffffff1614159050919050565b60076000815480929190611b61906132a2565b919050555060006007549050611b778382611d97565b80600960008573ffffffffffffffffffffffffffffffffffffffff1673ffffffffffffffffffffffffffffffffffffffff168152602001908152602001600020819055508273ffffffffffffffffffffffffffffffffffffffff167faa65ebe4613147dd82485f5bc2f7908a1b5c372d5a3890cccebaace1c7f9df708284604051611c03929190612fb7565b60405180910390a2505050565b6000611c318473ffffffffffffffffffffffffffffffffffffffff16611fb4565b15611d8a578373ffffffffffffffffffffffffffffffffffffffff1663150b7a02611c5a6114e6565b8786866040518563ffffffff1660e01b8152600401611c7c949392919061333f565b6020604051808303816000875af1925050508015611cb857506040513d601f19601f82011682018060405250810190611cb591906133a0565b60015b611d3a573d8060008114611ce8576040519150601f19603f3d011682016040523d82523d6000602084013e611ced565b606091505b506000815103611d32576040517f08c379a0000000000000000000000000000000000000000000000000000000008152600401611d2990613282565b60405180910390fd5b805181602001fd5b63150b7a0260e01b7bffffffffffffffffffffffffffffffffffffffffffffffffffffffff1916817bffffffffffffffffffffffffffffffffffffffffffffffffffffffff191614915050611d8f565b600190505b949350505050565b600073ffffffffffffffffffffffffffffffffffffffff168273ffffffffffffffffffffffffffffffffffffffff1603611e06576040517f08c379a0000000000000000000000000000000000000000000000000000000008152600401611dfd90613419565b60405180910390fd5b611e0f81611b0d565b15611e4f576040517f08c379a0000000000000000000000000000000000000000000000000000000008152600401611e4690613485565b60405180910390fd5b611e5d600083836001611fd7565b611e6681611b0d565b15611ea6576040517f08c379a0000000000000000000000000000000000000000000000000000000008152600401611e9d90613485565b60405180910390fd5b6001600360008473ffffffffffffffffffffffffffffffffffffffff1673ffffffffffffffffffffffffffffffffffffffff16815260200190815260200160002060008282540192505081905550816002600083815260200190815260200160002060006101000a81548173ffffffffffffffffffffffffffffffffffffffff021916908373ffffffffffffffffffffffffffffffffffffffff160217905550808273ffffffffffffffffffffffffffffffffffffffff16600073ffffffffffffffffffffffffffffffffffffffff167fddf252ad1be2c89b69c2b068fc378daa952ba7f163c4a11628f55a4df523b3ef60405160405180910390a4611fb0600083836001611fdd565b5050565b6000808273ffffffffffffffffffffffffffffffffffffffff163b119050919050565b50505050565b50505050565b6000604051905090565b600080fd5b600080fd5b60007fffffffff0000000000000000000000000000000000000000000000000000000082169050919050565b61202c81611ff7565b811461203757600080fd5b50565b60008135905061204981612023565b92915050565b60006020828403121561206557612064611fed565b5b60006120738482850161203a565b91505092915050565b60008115159050919050565b6120918161207c565b82525050565b60006020820190506120ac6000830184612088565b92915050565b600081519050919050565b600082825260208201905092915050565b60005b838110156120ec5780820151818401526020810190506120d1565b60008484015250505050565b6000601f19601f8301169050919050565b6000612114826120b2565b61211e81856120bd565b935061212e8185602086016120ce565b612137816120f8565b840191505092915050565b6000602082019050818103600083015261215c8184612109565b905092915050565b6000819050919050565b61217781612164565b811461218257600080fd5b50565b6000813590506121948161216e565b92915050565b6000602082840312156121b0576121af611fed565b5b60006121be84828501612185565b91505092915050565b600073ffffffffffffffffffffffffffffffffffffffff82169050919050565b60006121f2826121c7565b9050919050565b612202816121e7565b82525050565b600060208201905061221d60008301846121f9565b92915050565b61222c816121e7565b811461223757600080fd5b50565b60008135905061224981612223565b92915050565b6000806040838503121561226657612265611fed565b5b60006122748582860161223a565b925050602061228585828601612185565b9150509250929050565b6000806000606084860312156122a8576122a7611fed565b5b60006122b68682870161223a565b93505060206122c78682870161223a565b92505060406122d886828701612185565b9150509250925092565b600080fd5b600080fd5b7f4e487b7100000000000000000000000000000000000000000000000000000000600052604160045260246000fd5b612324826120f8565b810181811067ffffffffffffffff82111715612343576123426122ec565b5b80604052505050565b6000612356611fe3565b9050612362828261231b565b919050565b600067ffffffffffffffff821115612382576123816122ec565b5b61238b826120f8565b9050602081019050919050565b82818337600083830152505050565b60006123ba6123b584612367565b61234c565b9050828152602081018484840111156123d6576123d56122e7565b5b6123e1848285612398565b509392505050565b600082601f8301126123fe576123fd6122e2565b5b813561240e8482602086016123a7565b91505092915050565b6000806000606084860312156124305761242f611fed565b5b600084013567ffffffffffffffff81111561244e5761244d611ff2565b5b61245a868287016123e9565b935050602061246b86828701612185565b925050604084013567ffffffffffffffff81111561248c5761248b611ff2565b5b612498868287016123e9565b9150509250925092565b6000602082840312156124b8576124b7611fed565b5b60006124c68482850161223a565b91505092915050565b6124d881612164565b82525050565b60006020820190506124f360008301846124cf565b92915050565b600080604083850312156125105761250f611fed565b5b600061251e8582860161223a565b925050602083013567ffffffffffffffff81111561253f5761253e611ff2565b5b61254b858286016123e9565b9150509250929050565b600060408201905061256a60008301856124cf565b818103602083015261257c8184612109565b90509392505050565b6000606082019050818103600083015261259f8186612109565b90506125ae60208301856124cf565b81810360408301526125c08184612109565b9050949350505050565b6125d38161207c565b81146125de57600080fd5b50565b6000813590506125f0816125ca565b92915050565b6000806040838503121561260d5761260c611fed565b5b600061261b8582860161223a565b925050602061262c858286016125e1565b9150509250929050565b600067ffffffffffffffff821115612651576126506122ec565b5b61265a826120f8565b9050602081019050919050565b600061267a61267584612636565b61234c565b905082815260208101848484011115612696576126956122e7565b5b6126a1848285612398565b509392505050565b600082601f8301126126be576126bd6122e2565b5b81356126ce848260208601612667565b91505092915050565b600080600080608085870312156126f1576126f0611fed565b5b60006126ff8782880161223a565b94505060206127108782880161223a565b935050604061272187828801612185565b925050606085013567ffffffffffffffff81111561274257612741611ff2565b5b61274e878288016126a9565b91505092959194509250565b6000806040838503121561277157612770611fed565b5b600083013567ffffffffffffffff81111561278f5761278e611ff2565b5b61279b858286016123e9565b92505060206127ac85828601612185565b9150509250929050565b6000602082840312156127cc576127cb611fed565b5b600082013567ffffffffffffffff8111156127ea576127e9611ff2565b5b6127f6848285016123e9565b91505092915050565b6000806040838503121561281657612815611fed565b5b60006128248582860161223a565b92505060206128358582860161223a565b9150509250929050565b7f4e487b7100000000000000000000000000000000000000000000000000000000600052602260045260246000fd5b6000600282049050600182168061288657607f821691505b6020821081036128995761289861283f565b5b50919050565b7f4552433732313a20617070726f76616c20746f2063757272656e74206f776e6560008201527f7200000000000000000000000000000000000000000000000000000000000000602082015250565b60006128fb6021836120bd565b91506129068261289f565b604082019050919050565b6000602082019050818103600083015261292a816128ee565b9050919050565b7f4552433732313a20617070726f76652063616c6c6572206973206e6f7420746f60008201527f6b656e206f776e6572206f7220617070726f76656420666f7220616c6c000000602082015250565b600061298d603d836120bd565b915061299882612931565b604082019050919050565b600060208201905081810360008301526129bc81612980565b9050919050565b7f4552433732313a2063616c6c6572206973206e6f7420746f6b656e206f776e6560008201527f72206f7220617070726f76656400000000000000000000000000000000000000602082015250565b6000612a1f602d836120bd565b9150612a2a826129c3565b604082019050919050565b60006020820190508181036000830152612a4e81612a12565b9050919050565b60008190508160005260206000209050919050565b60006020601f8301049050919050565b600082821b905092915050565b600060088302612ab77fffffffffffffffffffffffffffffffffffffffffffffffffffffffffffffffff82612a7a565b612ac18683612a7a565b95508019841693508086168417925050509392505050565b6000819050919050565b6000612afe612af9612af484612164565b612ad9565b612164565b9050919050565b6000819050919050565b612b1883612ae3565b612b2c612b2482612b05565b848454612a87565b825550505050565b600090565b612b41612b34565b612b4c818484612b0f565b505050565b5b81811015612b7057612b65600082612b39565b600181019050612b52565b5050565b601f821115612bb557612b8681612a55565b612b8f84612a6a565b81016020851015612b9e578190505b612bb2612baa85612a6a565b830182612b51565b50505b505050565b600082821c905092915050565b6000612bd860001984600802612bba565b1980831691505092915050565b6000612bf18383612bc7565b9150826002028217905092915050565b612c0a826120b2565b67ffffffffffffffff811115612c2357612c226122ec565b5b612c2d825461286e565b612c38828285612b74565b600060209050601f831160018114612c6b5760008415612c59578287015190505b612c638582612be5565b865550612ccb565b601f198416612c7986612a55565b60005b82811015612ca157848901518255600182019150602085019450602081019050612c7c565b86831015612cbe5784890151612cba601f891682612bc7565b8355505b6001600288020188555050505b505050505050565b7f4552433732313a20696e76616c696420746f6b656e2049440000000000000000600082015250565b6000612d096018836120bd565b9150612d1482612cd3565b602082019050919050565b60006020820190508181036000830152612d3881612cfc565b9050919050565b7f4552433732313a2061646472657373207a65726f206973206e6f74206120766160008201527f6c6964206f776e65720000000000000000000000000000000000000000000000602082015250565b6000612d9b6029836120bd565b9150612da682612d3f565b604082019050919050565b60006020820190508181036000830152612dca81612d8e565b9050919050565b600081905092915050565b6000612de7826120b2565b612df18185612dd1565b9350612e018185602086016120ce565b80840191505092915050565b6000612e198284612ddc565b915081905092915050565b7f416374696f6e2074797065206e6f74207265636f676e697a6564000000000000600082015250565b6000612e5a601a836120bd565b9150612e6582612e24565b602082019050919050565b60006020820190508181036000830152612e8981612e4d565b9050919050565b7f4e487b7100000000000000000000000000000000000000000000000000000000600052601160045260246000fd5b6000612eca82612164565b9150612ed583612164565b9250828203905081811115612eed57612eec612e90565b5b92915050565b7f4e487b7100000000000000000000000000000000000000000000000000000000600052603260045260246000fd5b6000612f2d82612164565b915060008203612f4057612f3f612e90565b5b600182039050919050565b7f52657075746174696f6e2063616e6e6f7420676f2062656c6f77207a65726f00600082015250565b6000612f81601f836120bd565b9150612f8c82612f4b565b602082019050919050565b60006020820190508181036000830152612fb081612f74565b9050919050565b6000604082019050612fcc60008301856124cf565b612fd960208301846124cf565b9392505050565b7f4f776e61626c653a206e6577206f776e657220697320746865207a65726f206160008201527f6464726573730000000000000000000000000000000000000000000000000000602082015250565b600061303c6026836120bd565b915061304782612fe0565b604082019050919050565b6000602082019050818103600083015261306b8161302f565b9050919050565b7f536f756c626f756e6420746f6b656e732063616e6e6f74206265207472616e7360008201527f6665727265640000000000000000000000000000000000000000000000000000602082015250565b60006130ce6026836120bd565b91506130d982613072565b604082019050919050565b600060208201905081810360008301526130fd816130c1565b9050919050565b7f4f776e61626c653a2063616c6c6572206973206e6f7420746865206f776e6572600082015250565b600061313a6020836120bd565b915061314582613104565b602082019050919050565b600060208201905081810360008301526131698161312d565b9050919050565b600061317b82612164565b915061318683612164565b925082820190508082111561319e5761319d612e90565b5b92915050565b7f4552433732313a20617070726f766520746f2063616c6c657200000000000000600082015250565b60006131da6019836120bd565b91506131e5826131a4565b602082019050919050565b60006020820190508181036000830152613209816131cd565b9050919050565b7f4552433732313a207472616e7366657220746f206e6f6e20455243373231526560008201527f63656976657220696d706c656d656e7465720000000000000000000000000000602082015250565b600061326c6032836120bd565b915061327782613210565b604082019050919050565b6000602082019050818103600083015261329b8161325f565b9050919050565b60006132ad82612164565b91507fffffffffffffffffffffffffffffffffffffffffffffffffffffffffffffffff82036132df576132de612e90565b5b600182019050919050565b600081519050919050565b600082825260208201905092915050565b6000613311826132ea565b61331b81856132f5565b935061332b8185602086016120ce565b613334816120f8565b840191505092915050565b600060808201905061335460008301876121f9565b61336160208301866121f9565b61336e60408301856124cf565b81810360608301526133808184613306565b905095945050505050565b60008151905061339a81612023565b92915050565b6000602082840312156133b6576133b5611fed565b5b60006133c48482850161338b565b91505092915050565b7f4552433732313a206d696e7420746f20746865207a65726f2061646472657373600082015250565b60006134036020836120bd565b915061340e826133cd565b602082019050919050565b60006020820190508181036000830152613432816133f6565b9050919050565b7f4552433732313a20746f6b656e20616c7265616479206d696e74656400000000600082015250565b600061346f601c836120bd565b915061347a82613439565b602082019050919050565b6000602082019050818103600083015261349e81613462565b905091905056fea26469706673582212203446f4f407afa4d5fcced78d546140606c6066673fc6de3c6faff5c362bdc7f564736f6c63430008140033",
    "linkReferences": {},
    "deployedLinkReferences": {}
}